:100000000C9462000C948A000C948A000C948A0070
:100010000C948A000C948A000C948A000C948A0038
:100020000C948A000C948A000C948A000C948A0028
:100030000C948A000C948A000C948A000C948A0018
:100040000C94A6040C948A000C9474040C944E0432
:100050000C948A000C948A000C948A000C948A00F8
:100060000C9417050C948A0000000000240027005F
:100070002A0000000000250028002B0000000000DE
:1000800023002600290004040404040404040202DA
:100090000202020203030303030301020408102007
:1000A0004080010204081020010204081020000012
:1000B0000008000201000003040700000000000027
:1000C0000000EA0C11241FBECFEFD8E0DEBFCDBF89
:1000D00012E0A0E0B1E0EAE3FFE102C005900D927A
:1000E000A633B107D9F723E0A6E3B2E001C01D9221
:1000F000A639B207E1F710E0C2E6D0E004C02197CC
:10010000FE010E94540DC136D107C9F70E9459075C
:100110000C949B0F0C940000CF92DF92EF92FF9211
:100120000F931F93CF93DF936C017A018B01C0E093
:10013000D0E0CE15DF0589F0D8016D918D01D60193
:10014000ED91FC910190F081E02DC6010995892B7C
:1001500011F47E0102C02196ECCFC701DF91CF914F
:100160001F910F91FF90EF90DF90CF900895FC01C9
:10017000918D828D981761F0828DDF01A80FB11DDE
:100180005D968C91928D9F5F9F73928F90E0089502
:100190008FEF9FEF0895FC01918D828D981731F0BC
:1001A000828DE80FF11D858D90E008958FEF9FEF10
:1001B0000895FC01918D228D892F90E0805C9F4FE6
:1001C000821B91098F739927089581EE92E00E9416
:1001D000D90021E0892B09F420E0822F0895FC0149
:1001E000848DDF01A80FB11DA35ABF4F2C91848DC0
:1001F00090E001968F739927848FA689B7892C93F5
:10020000A089B1898C9180648C93938D848D98138F
:1002100006C00288F389E02D80818F7D8083089558
:10022000EF92FF920F931F93CF93DF93EC0181E046
:10023000888F9B8D8C8D981305C0E889F989808102
:1002400085FD24C0F62E0B8D10E00F5F1F4F0F733E
:100250001127E02E8C8DE8120CC00FB607FCFACFE8
:10026000E889F989808185FFF5CFCE010E94EF00F2
:10027000F1CF8B8DFE01E80FF11DE35AFF4FF082A5
:100280000B8FEA89FB898081806207C0EE89FF8934
:100290006083E889F98980818064808381E090E0CF
:1002A000DF91CF911F910F91FF90EF900895CF9321
:1002B000DF93EC01888D8823C9F0EA89FB8980816E
:1002C00085FD05C0A889B9898C9186FD0FC00FB640
:1002D00007FCF5CF808185FFF2CFA889B9898C9181
:1002E00085FFEDCFCE010E94EF00E7CFDF91CF91E8
:1002F000089580E090E0892B29F00E94E5008111AB
:100300000C9400000895833081F028F4813099F036
:100310008230A1F008958730A9F08830B9F0843098
:10032000D1F4809180008F7D03C0809180008F7711
:1003300080938000089584B58F7702C084B58F7D47
:1003400084BD08958091B0008F7703C08091B00084
:100350008F7D8093B0000895CF93DF93282F30E0F6
:10036000F901E255FF4F8491F901E656FF4FD49110
:10037000F901EA57FF4FC491CC2391F081110E94FB
:100380008301EC2FF0E0EE0FFF1FE458FF4FA59123
:10039000B491EC91ED2381E090E021F480E002C083
:1003A00080E090E0DF91CF9108951F93CF93DF938A
:1003B000282F30E0F901E255FF4F8491F901E6560C
:1003C000FF4FD491F901EA57FF4FC491CC23C9F0F4
:1003D000162F81110E948301EC2FF0E0EE0FFF1F1A
:1003E000EE58FF4FA591B4918FB7F894111105C045
:1003F0009C91ED2FE095E92302C0EC91ED2BEC935D
:100400008FBFDF91CF911F910895CF93DF9390E03D
:10041000FC01E656FF4F2491FC01EA57FF4F8491FF
:10042000882361F190E0880F991FFC01E859FF4F84
:10043000C591D491FC01EE58FF4FA591B491611183
:1004400009C09FB7F8948881209582238883EC9116
:100450002E230BC0623061F49FB7F8943881822F4D
:10046000809583238883EC912E2B2C939FBF06C00D
:100470008FB7F894E8812E2B28838FBFDF91CF911F
:1004800008958E3008F08E508770806480937C00D1
:1004900080917A00806480937A0080917A0086FD52
:1004A000FCCF809178002091790090E0922B089504
:1004B0003FB7F8948091C8029091C902A091CA02F6
:1004C000B091CB0226B5A89B05C02F3F19F001962D
:1004D000A11DB11D3FBFBA2FA92F982F8827820FCA
:1004E000911DA11DB11DBC01CD0142E0660F771F1A
:1004F000881F991F4A95D1F708958F929F92AF92C6
:10050000BF92CF92DF92EF92FF926B017C010E942B
:1005100058024B015C01C114D104E104F104F1F073
:100520000E945802DC01CB0188199909AA09BB096C
:10053000883E9340A105B10570F321E0C21AD108AD
:10054000E108F10888EE880E83E0981EA11CB11C1A
:10055000C114D104E104F10419F7DDCFFF90EF904D
:10056000DF90CF90BF90AF909F908F90089585EDD2
:100570008093BC008091BC0084FDFCCF1092CE0221
:10058000089540915802262F30E0240F311D21326A
:100590003105DCF42091CE022430C9F4FC0180E066
:1005A00090E0861758F4309158022191DC01AA5C42
:1005B000BD4FA30FB11D2C930196F3CF809158022C
:1005C000680F6093580280E0089581E0089582E00A
:1005D0000895089581E090E03091D2022091D102F7
:1005E000321710F480E090E091958195910908957B
:1005F0008091D2029091D102891730F48F5F80935D
:10060000D20280E090E008958FEF9FEF08958091EF
:10061000D10290E02091D202821B91090895CF92DD
:10062000DF92EF92FF920F931F93CF93DF937C01A2
:10063000262F972F8A018091A102882391F0C62F3F
:10064000D72F6E01C40ED51ECC15DD0571F0699152
:10065000D701ED91FC910190F081E02DC701099542
:10066000F3CF642F822F0E94C102C801DF91CF9186
:100670001F910F91FF90EF90DF90CF900895CF934F
:10068000DF931F92CDB7DEB769832091A1022223A9
:10069000D1F02091CF02203240F021E030E0FC0187
:1006A0003383228380E090E015C08091D002E82F50
:1006B000F0E0EE55FD4F998190838F5F8093D002DB
:1006C0008093CF0205C061E0CE0101960E94C10275
:1006D00081E090E00F90DF91CF910895CF93FC01DE
:1006E000C48121E02093A102C093C2021092D002E3
:1006F0001092CF028385682B8EE793E00E943F0320
:100700008091CF02813208F046C09091CE029111C3
:10071000FCCF92E09093CE0291E09093CD029FEFB8
:100720009093A00210929F0280939E02A2EAB2E0F0
:100730002EE732E0F9019E2F921B981718F49D9135
:100740009193F9CF10927D0280917D02CC0FC82B3E
:10075000C0937D028091CC02813061F41092CC0272
:1007600080917D028093BB008091BC0083FDF8CF17
:1007700085EC01C085EE8093BC008091CE02823072
:10078000E1F38091A0028F3F31F08091A00280328E
:1007900011F08091A0021092D0021092CF0210921C
:1007A000A102CF9108950F931F93CF938C01C62F71
:1007B0000E946E036C2F6460C8010E946E036C2F50
:1007C0006B7FC8010E946E0383EC90E00197F1F704
:1007D000CF911F910F9108950E94960F6115710599
:1007E00079F0FB0101900020E9F73197AF01461B3A
:1007F000570BDC01ED91FC910280F381E02D09940F
:1008000080E090E008954F925F926F927F92EF9216
:10081000FF920F931F93CF93DF93CDB7DEB7A197CE
:100820000FB6F894DEBF0FBECDBF7C01FA01CB013D
:1008300019A2223008F42AE08E010F5D1F4F422ECC
:10084000512C612C712CBF01A30192010E94320D29
:10085000F901CA01015011096A3014F4605D01C048
:10086000695CD8016C93232B242B252B61F7B801ED
:10087000C7010E94EE03A1960FB6F894DEBF0FBE2B
:10088000CDBFDF91CF911F910F91FF90EF907F909F
:100890006F905F904F9008950C94EE031F920F920B
:1008A0000FB60F9211242F933F934F935F936F9343
:1008B0007F938F939F93AF93BF93EF93FF9381EEBB
:1008C00092E00E94EF00FF91EF91BF91AF919F9155
:1008D0008F917F916F915F914F913F912F910F90E9
:1008E0000FBE0F901F9018951F920F920FB60F9288
:1008F00011242F938F939F93EF93FF93E091F10235
:10090000F091F2028081E091F702F091F80282FD0D
:1009100012C090818091FA028F5F8F732091FB0249
:10092000821751F0E091FA02F0E0EF51FD4F958F00
:100930008093FA0201C08081FF91EF919F918F9186
:100940002F910F900FBE0F901F9018951F920F922E
:100950000FB60F9211242F933F938F939F93AF93D2
:10096000BF938091C4029091C502A091C602B0913C
:10097000C7023091C30223E0230F2D3720F40196E4
:10098000A11DB11D05C026E8230F0296A11DB11DB2
:100990002093C3028093C4029093C502A093C60221
:1009A000B093C7028091C8029091C902A091CA0277
:1009B000B091CB020196A11DB11D8093C802909306
:1009C000C902A093CA02B093CB02BF91AF919F918D
:1009D0008F913F912F910F900FBE0F901F90189500
:1009E000FF920F931F93CF93DF931F92CDB7DEB784
:1009F0008C01F62E962F907F692F642BC8014983B6
:100A00000E94D30380E1F89EB00111244981642B38
:100A1000C8010F90DF91CF911F910F91FF900C941F
:100A2000D30341E00E94F00481E090E008951F921A
:100A30000F920FB60F9211242F933F934F935F9312
:100A40006F937F938F939F93AF93BF93EF93FF9396
:100A50008091B900887F803609F49CC068F588329F
:100A600009F45BC090F4803109F454C038F4882351
:100A700009F4F6C0883009F44DC0F6C0883109F495
:100A80004CC0803209F45DC0EFC0803409F468C006
:100A900048F4803309F455C0883309F0E5C08093E9
:100AA000A002D8C0803509F44FC0883509F45DC074
:100AB000883409F0D9C0D6C0883909F4C7C0A8F471
:100AC000883709F467C038F4883609F463C0803782
:100AD00009F460C0C9C0883809F4B8C0803909F485
:100AE0005FC0803809F0C0C05BC0803B09F486C09D
:100AF00038F4803A09F466C0883A09F47FC0B4C07B
:100B0000803C09F4A7C0883C09F4A4C0883B09F4E0
:100B10008AC0AAC080917D0210C090919F028091EE
:100B20009E02981770F5E0919F0281E08E0F8093EE
:100B30009F02F0E0E258FD4F80818093BB0085EC7E
:100B400086C08093A0028EC0E0919F0281E08E0F4C
:100B500080939F028091BB00F0E0E258FD4F8083BC
:100B600090919F0280919E026EC0E0919F0281E071
:100B70008E0F80939F028091BB00F0E0E258FD4F02
:100B800080838091CD0281116DC081E08093CC0281
:100B900084EA61C083E08093CE0210927C02CFCFC2
:100BA00080917C02803208F051C0E0917C0281E0AB
:100BB0008E0F80937C028091BB00F0E0E45AFD4FE1
:100BC0008083BDCF85EC8093BC001092CE028091D3
:100BD0007C02803230F4E0917C02F0E0E45AFD4F78
:100BE000108260917C0270E0E0915A02F0915B0209
:100BF0008CE592E0099510927C0236C084E08093E7
:100C0000CE021092590210925802E0915602F091D1
:100C10005702099580915802811105C081E08093A7
:100C2000580210923602E091590281E08E0F8093B3
:100C30005902F0E0EA5CFD4F80818093BB00909107
:100C4000590280915802981708F479CF85E880936B
:100C5000BC000AC085EC8093BC001092CE0204C098
:100C60001092A0020E94B702FF91EF91BF91AF9145
:100C70009F918F917F916F915F914F913F912F91B4
:100C80000F900FBE0F901F90189540E061E08AE82A
:100C900093E00E94F0048BE39FE10197F1F7089540
:100CA000CF93DF93CDB7DEB728970FB6F894DEBFAA
:100CB0000FBECDBF28E0E0E0F1E0DE01119601902B
:100CC0000D922A95E1F720919203261710F46FEF09
:100CD000620FFE013196E60FF11DE60FF11D9081C6
:100CE000682F690F606840E08AE893E028960FB6A5
:100CF000F894DEBF0FBECDBFDF91CF910C94F0040E
:100D00008F929F92AF92BF92CF92DF92EF92FF921B
:100D10000F931F93CF93DF93EC016A017B019A013C
:100D2000AB01C701B6010E94910F882319F068E258
:100D300072E027C046015701E894B7F82FEF3FEF64
:100D40004FE75FE7C501B4010E94910F81110DC00B
:100D50002FEF3FEF4FE75FE7C501B4010E94C70DDA
:100D600018161CF46CE272E00CC02FEF3FEF4FE757
:100D70005FE4C701B6010E941F0F18168CF460E3F0
:100D800072E0CE01DF91CF911F910F91FF90EF9014
:100D9000DF90CF90BF90AF909F908F900C94EE0318
:100DA0002FEF3FEF4FE75FECC701B6010E94C70D81
:100DB00087FDE5CF20E030E0A901C701B6010E9420
:100DC000C70D87FF0EC0E881F9810190F081E02D09
:100DD0006DE2CE0109958C01F7FAF094F7F8F094E2
:100DE00002C000E010E02AE037ED43EA5BE3C70110
:100DF000B6010E945B0D6B017C010E943E0E4B010F
:100E00005C010E946D0E9B01AC01C701B6010E94FE
:100E10005A0D6B017C012AE0B501A401CE010E94AC
:100E20000304080F191F64E372E0CE010E94EE0371
:100E3000080F191F20E030E040E251E4C701B6017D
:100E40000E94240F4B015C010E943E0E6B01E12CBD
:100E5000F12C2AE0B701A601CE010E940304080F7D
:100E6000191FC701B6010E946D0E9B01AC01C5019F
:100E7000B4010E945A0D20E030E040E251E40E94AB
:100E8000240F0E943E0EAB0160E070E02AE0CE012C
:100E90000E940304800F911FDF91CF911F910F914A
:100EA000FF90EF90DF90CF90BF90AF909F908F908A
:100EB0000895789484B5826084BD84B5816084BDD2
:100EC00085B5826085BD85B5816085BD80916E00E8
:100ED000816080936E001092810080918100826019
:100EE0008093810080918100816080938100809156
:100EF00080008160809380008091B1008460809345
:100F0000B1008091B00081608093B00080917A0040
:100F1000846080937A0080917A00826080937A0066
:100F200080917A00816080937A0080917A00806855
:100F300080937A001092C1001092D2021092D102D6
:100F40001092D0021092CF021092CE0281E08093D4
:100F5000CD021092CC0261E082E10E94D50161E0F5
:100F600083E10E94D5018091B9008E7F8093B90002
:100F70008091B9008D7F8093B90088E48093B80098
:100F800085E48093BC0010928F038091940382309B
:100F900018F098E090938F038093920362E370E0DF
:100FA00080E090E00E947D02609195038AE893E0E2
:100FB0000E946E0368EE73E080E090E00E947D0284
:100FC00060E38AE893E00E94D303CBE4D6E4CE0149
:100FD0000197F1F760E38AE893E00E94D303219739
:100FE000F1F760E38AE893E00E94D30383E592E09F
:100FF0000197F1F760E28AE893E00E94D3036091E1
:101000008F03606240E08AE893E00E94F00484E08D
:101010008093900340E06CE08AE893E00E94F00443
:101020000E944506C2E0C093910340E066E08AE872
:1010300093E00E94F00440E062E08AE893E00E94BE
:10104000F0048BE39FE10197F1F788E0809395032B
:1010500060E08AE893E00E946E03E091F102F09173
:10106000F202C083E091ED02F091EE021082E09175
:10107000EF02F091F0028FEC80831092F902E09180
:10108000F502F091F60286E08083E091F302F091A0
:10109000F402808180618083E091F302F091F40298
:1010A000808188608083E091F302F091F402808176
:1010B00080688083E091F302F091F40280818F7D5B
:1010C000808360E08091DF020E94050260E080E0A2
:1010D0000E94050261E083E00E94050260E08DE06D
:1010E0000E94050260E08CE00E94050260E08BE057
:1010F0000E94050260E08AE00E94050260E086E04E
:101100000E94050260E085E00E94050260E084E044
:101110000E94050260E087E00E9405028DE00E94C7
:10112000AC01892B09F403C161E083E00E94D50181
:1011300061E086E00E94050260E085E00E94050211
:1011400060E084E00E94050260E087E00E94050202
:1011500060E086E00E94D50180E00E944102909309
:10116000E0028093DF0225E0289FB001299F700DE7
:101170001124072E000C880B990B0E946F0E20E0A3
:1011800030E040E85AE30E94240F9B01AC016093D9
:10119000D7027093D8028093D9029093DA0260E06C
:1011A00070E080EA90E40E94CC0D20E030E040E85E
:1011B0005FE30E945A0D6093DB027093DC02809320
:1011C000DD029093DE029B01AC010E945B0D20E0EA
:1011D00030E04AE754E40E94240F6093D3027093F6
:1011E000D4028093D5029093D60220E030E04AEFFB
:1011F00054E40E941F0F181644F560E371E081EE7D
:1012000092E00E944C040E94450660E080E00E944B
:1012100050066FE371E08AE893E00E944C0468EEA8
:1012200073E080E090E00E947D0261E080E00E9437
:1012300050066CE471E08AE893E00E944C0468EE8A
:1012400073E080E090E00E947D0220E030E04AEF11
:1012500054E46091D3027091D4028091D5029091B0
:10126000D6020E94C70D87FF62C06DE571E081EE76
:1012700092E00E944C046AE671E081EE92E00E94E6
:101280004C046AE671E081EE92E00E944C046CE648
:1012900071E081EE92E00E944C044091D3025091A3
:1012A000D4026091D5027091D60281EE92E00E9444
:1012B000800667E771E081EE92E00E944C0469E7E6
:1012C00071E081EE92E00E944C046AE671E081EEEA
:1012D00092E00E944C040E94450660E080E00E947B
:1012E000500660E871E08AE893E00E944C0461E0F7
:1012F00080E00E9450064091D3025091D402609148
:10130000D5027091D6028AE893E00E94800661E0DF
:101310008AE00E94500669E771E08AE893E00E9443
:101320004C0468EE73E080E090E00E947D028CE067
:101330000E94AC01892B09F4FFC061E083E00E94A8
:10134000D50160E086E00E94050261E085E00E9430
:10135000050260E084E00E94050260E087E00E94F0
:10136000050260E085E00E94D50180E00E94410214
:101370009093E0028093DF0225E0289FB001299F2F
:10138000700D1124072E000C880B990B0E946F0E14
:1013900020E030E040E85AE30E94240F9B01AC01BA
:1013A0006093D7027093D8028093D9029093DA02A7
:1013B00060E070E080EA90E40E94CC0D20E030E034
:1013C00040E85FE30E945A0D6093DB027093DC02F9
:1013D0008093DD029093DE0220E030E040EA51E4A9
:1013E0000E94240F6093D3027093D4028093D5029D
:1013F0009093D60220E030E040EA51E40E941F0FB3
:10140000181644F560E371E081EE92E00E944C040E
:101410000E94450660E080E00E9450066FE371E0A4
:101420008AE893E00E944C0468EE73E080E090E06C
:101430000E947D0261E080E00E9450066CE471E051
:101440008AE893E00E944C0468EE73E080E090E04C
:101450000E947D0220E030E040EA51E46091D30236
:101460007091D4028091D5029091D6020E94C70D4E
:1014700087FF62C061E971E081EE92E00E944C0456
:101480006AE671E081EE92E00E944C046AE671E047
:1014900081EE92E00E944C046CE671E081EE92E0F5
:1014A0000E944C044091D3025091D4026091D50225
:1014B0007091D60281EE92E00E94800667E771E0AB
:1014C00081EE92E00E944C046FE971E081EE92E0BF
:1014D0000E944C046AE671E081EE92E00E944C04A6
:1014E0000E94450660E080E00E94500666EA71E0D6
:1014F0008AE893E00E944C0461E080E00E9450067C
:101500004091D3025091D4026091D5027091D602DD
:101510008AE893E00E94800661E08AE00E9450061B
:101520006FE971E08AE893E00E944C0468EE73E092
:1015300080E090E00E947D028BE00E94AC01892B4C
:1015400009F4FFC061E083E00E94D50160E086E01D
:101550000E94050260E085E00E94050261E084E0EF
:101560000E94050260E087E00E94050260E084E0DE
:101570000E94D50180E00E9441029093E002809396
:10158000DF0225E0289FB001299F700D1124072E4E
:10159000000C880B990B0E946F0E20E030E040E8B1
:1015A0005AE30E94240F9B01AC016093D702709311
:1015B000D8028093D9029093DA0260E070E080EA6A
:1015C00090E40E94CC0D20E030E040E85FE30E9410
:1015D0005A0D6093DB027093DC028093DD029093DE
:1015E000DE0220E030E04CE553E40E94240F6093DB
:1015F000D3027093D4028093D5029093D60220E058
:1016000030E048E453E40E941F0F181644F560E3ED
:1016100071E081EE92E00E944C040E94450660E079
:1016200080E00E9450066FE371E08AE893E00E9438
:101630004C0468EE73E080E090E00E947D0261E07F
:1016400080E00E9450066CE471E08AE893E00E941A
:101650004C0468EE73E080E090E00E947D0220E0A0
:1016600030E048E453E46091D3027091D402809159
:10167000D5029091D6020E94C70D87FF62C067EB2A
:1016800071E081EE92E00E944C046AE671E081EE26
:1016900092E00E944C046AE671E081EE92E00E94C2
:1016A0004C046CE671E081EE92E00E944C044091A3
:1016B000D3025091D4026091D5027091D60281EE8E
:1016C00092E00E94800667E771E081EE92E00E945E
:1016D0004C046FE971E081EE92E00E944C046AE6EE
:1016E00071E081EE92E00E944C040E94450660E0A9
:1016F00080E00E94500666EC71E08AE893E00E9468
:101700004C0461E080E00E9450064091D302509169
:10171000D4026091D5027091D6028AE893E00E94CB
:10172000800661E08AE00E9450066FE971E08AE875
:1017300093E00E944C0468EE73E080E090E00E9429
:101740007D028AE00E94AC01892B09F403C161E0AB
:1017500083E00E94D50160E086E00E94050260E01F
:1017600085E00E94050260E084E00E94050261E0DD
:1017700087E00E94050260E087E00E94D50180E0DA
:101780000E9441029093E0028093DF0225E0289FAF
:10179000B001299F700D1124072E000C880B990BA6
:1017A0000E946F0E20E030E040E85AE30E94240FD0
:1017B0009B01AC016093D7027093D8028093D90249
:1017C0009093DA0260E070E080EA90E40E94CC0D31
:1017D00020E030E040E85FE30E945A0D6093DB02B6
:1017E0007093DC028093DD029093DE026093D3025B
:1017F0007093D4028093D5029093D60220E030E01B
:1018000040E050E40E941F0F181694F56FE371E05A
:1018100081EE92E00E944C040E94450660E080E068
:101820000E9450066FE371E08AE893E00E944C0446
:1018300068EE73E080E090E00E947D0261E080E06D
:101840000E94500667ED71E08AE893E00E944C0424
:1018500061E08AE00E94500666E571E08AE893E064
:101860000E944C0468EE73E080E090E00E947D02EC
:1018700020E030E040E050E46091D3027091D40267
:101880008091D5029091D6020E94C70D87FF62C059
:1018900061EE71E081EE92E00E944C046AE671E034
:1018A00081EE92E00E944C046AE671E081EE92E0E3
:1018B0000E944C046CE671E081EE92E00E944C04C0
:1018C0004091D3025091D4026091D5027091D6021A
:1018D00081EE92E00E94800667E771E081EE92E07F
:1018E0000E944C046EEE71E081EE92E00E944C0486
:1018F0006AE671E081EE92E00E944C040E94450687
:1019000060E080E00E94500665EF71E08AE893E0B5
:101910000E944C0461E080E00E9450064091D30296
:101920005091D4026091D5027091D6028AE893E07A
:101930000E94800661E08AE00E9450066EEE71E02F
:101940008AE893E00E944C0468EE73E080E090E047
:101950000E947D028DE00E94AC01892B79F48CE01D
:101960000E94AC01892B51F48BE00E94AC01892BC1
:1019700029F48AE00E94AC01892B19F00E947901B8
:10198000CDCB6FE371E081EE92E00E944C040E94A7
:10199000450660E080E00E94500666E072E08AE85A
:1019A00093E00E944C0461E080E00E94500667E1F1
:1019B00072E08AE893E00E944C046AE671E081EEEE
:1019C00092E00E944C0468EE73E080E090E00E9498
:1019D0007D02D4CFE1EEF2E01382128288EE93E032
:1019E000A0E0B0E084839583A683B7832CE031E048
:1019F0003183208325EC30E03587248724EC30E0E8
:101A00003787268720EC30E0318B208B21EC30E0CB
:101A1000338B228B22EC30E0358B248B26EC30E0AC
:101A2000378B268B118E128E138E148EEEE7F3E019
:101A30001382128284839583A683B7838CE191E01D
:101A400091838083EAE8F3E0138212828CE291E0D2
:101A50009183808387E2848384E1818784E0828725
:101A600013860895A1E21A2EAA1BBB1BFD010DC00F
:101A7000AA1FBB1FEE1FFF1FA217B307E407F5073E
:101A800020F0A21BB30BE40BF50B661F771F881F1A
:101A9000991F1A9469F760957095809590959B01B0
:101AA000AC01BD01CF010895EE0FFF1F0590F49129
:101AB000E02D09945058BB27AA270E94720D0C9460
:101AC000E50E0E94D70E38F00E94DE0E20F039F4A9
:101AD0009F3F19F426F40C94D40E0EF4E095E7FB26
:101AE0000C94CE0EE92F0E94F60E58F3BA17620737
:101AF00073078407950720F079F4A6F50C94180F66
:101B00000EF4E0950B2EBA2FA02D0B01B901900118
:101B10000C01CA01A0011124FF27591B99F0593F5C
:101B200050F4503E68F11A16F040A22F232F342FA4
:101B30004427585FF3CF469537952795A795F040F2
:101B40005395C9F77EF41F16BA0B620B730B840B07
:101B5000BAF09150A1F0FF0FBB1F661F771F881FBF
:101B6000C2F70EC0BA0F621F731F841F48F4879517
:101B700077956795B795F7959E3F08F0B0CF939509
:101B8000880F08F09927EE0F9795879508950E9482
:101B9000AA0E08F481E008950E94E00D0C94E50E71
:101BA0000E94DE0E58F00E94D70E40F029F45F3FED
:101BB00029F00C94CE0E51110C94190F0C94D40EE4
:101BC0000E94F60E68F39923B1F3552391F3951B08
:101BD000550BBB27AA2762177307840738F09F5F4E
:101BE0005F4F220F331F441FAA1FA9F335D00E2EBB
:101BF0003AF0E0E832D091505040E695001CCAF728
:101C00002BD0FE2F29D0660F771F881FBB1F2617EA
:101C100037074807AB07B0E809F0BB0B802DBF01C1
:101C2000FF2793585F4F3AF09E3F510578F00C9490
:101C3000CE0E0C94190F5F3FE4F3983ED4F38695D3
:101C400077956795B795F7959F5FC9F7880F911DB1
:101C50009695879597F90895E1E0660F771F881F9D
:101C6000BB1F621773078407BA0720F0621B730B50
:101C7000840BBA0BEE1F88F7E09508950E94FE0EC4
:101C800088F09F5798F0B92F9927B751B0F0E1F03D
:101C9000660F771F881F991F1AF0BA95C9F714C0ED
:101CA000B13091F00E94180FB1E008950C94180F14
:101CB000672F782F8827B85F39F0B93FCCF3869526
:101CC00077956795B395D9F73EF490958095709583
:101CD00061957F4F8F4F9F4F0895E89409C097FB00
:101CE0003EF490958095709561957F4F8F4F9F4FF3
:101CF0009923A9F0F92F96E9BB279395F695879537
:101D000077956795B795F111F8CFFAF4BB0F11F4F9
:101D100060FF1BC06F5F7F4F8F4F9F4F16C08823A0
:101D200011F096E911C0772321F09EE8872F762FD6
:101D300005C0662371F096E8862F70E060E02AF017
:101D40009A95660F771F881FDAF7880F9695879503
:101D500097F90895990F0008550FAA0BE0E8FEEFD8
:101D600016161706E807F907C0F012161306E4075F
:101D7000F50798F0621B730B840B950B39F40A2658
:101D800061F0232B242B252B21F408950A2609F436
:101D9000A140A6958FEF811D811D089597F99F673A
:101DA00080E870E060E008959FEF80EC08950024E3
:101DB0000A941616170618060906089500240A94B0
:101DC00012161306140605060895092E0394000C36
:101DD00011F4882352F0BB0F40F4BF2B11F460FFC5
:101DE00004C06F5F7F4F8F4F9F4F089557FD9058EE
:101DF000440F551F59F05F3F71F04795880F97FBCF
:101E0000991F61F09F3F79F0879508951216130688
:101E10001406551FF2CF4695F1DF08C016161706B7
:101E20001806991FF1CF86957105610508940895EC
:101E3000E894BB2766277727CB0197F908950E947E
:101E4000AA0E08F48FEF08950E94370F0C94E50E48
:101E50000E94D70E38F00E94DE0E20F0952311F07C
:101E60000C94CE0E0C94D40E11240C94190F0E94D5
:101E7000F60E70F3959FC1F3950F50E0551F629FCA
:101E8000F001729FBB27F00DB11D639FAA27F00DD3
:101E9000B11DAA1F649F6627B00DA11D661F829FFA
:101EA0002227B00DA11D621F739FB00DA11D621FDF
:101EB000839FA00D611D221F749F3327A00D611DFC
:101EC000231F849F600D211D822F762F6A2F1124DE
:101ED0009F5750409AF0F1F088234AF0EE0FFF1F11
:101EE000BB1F661F771F881F91505040A9F79E3F68
:101EF000510580F00C94CE0E0C94190F5F3FE4F363
:101F0000983ED4F3869577956795B795F795E795BD
:101F10009F5FC1F7FE2B880F911D9695879597F9C6
:101F200008950E94AA0E880B990B089581E090E015
:0A1F3000F8940C949B0FF894FFCF77
:101F3A0000004000140054000000000010018C0052
:101F4A00D900B700CB005701000000003F030F0380
:101F5A000703F802EA02E9020000000011058C00FA
:101F6A00496E637265617365207363616C650053C2
:101F7A00656C656374207363616C65006F722049D8
:101F8A006E736572742052284F686D29002D2D2DAD
:101F9A002D5B324B5D2D2D2D2D000A005265736984
:101FAA007374616E63653A200020206F686D730058
:101FBA005343414C453A2020202030202D20324BDB
:101FCA00002D2D2D2D5B32304B5D2D2D2D2D004BEF
:101FDA00206F686D73005343414C453A20202032EC
:101FEA00202D2032304B002D2D2D2D5B3230304BE1
:101FFA005D2D2D2D2D005343414C453A2032302082
:10200A002D203230304B006F7220696E7365727406
:10201A00002D2D2D2D5B314D5D2D2D2D2D004D20AB
:10202A006F686D73005343414C453A20203230307B
:10203A00202D20314D0053656C65637420736361F4
:10204A006C6520616E6400696E736572742020721B
:10205A0065736973746F72006E616E00696E6600F3
:06206A006F7666002E00F7
:00000001FF
