:020000040000fa
:080000000002040000000000f2
:020000040000fa
:100400000f8020000edf20000e0188000000000099
:100410000c00070020b92000010020001100070097
:10042000000020000000e000020032000000020096
:10043000000000007e0b0200000000000040da0017
:100440000000fe004440a900800320000000e000fe
:100450000300320000002000a00188004440a800f2
:100460000000060091018800800078000000eb0089
:1004700015003700e280400032a0b4009101ba00bc
:10048000e280400032a0b4009102ba00e280400055
:1004900032a0b4000002eb00472bde00f507b200eb
:1004a000602ce10004003a000059eb008301e900f0
:1004b000fdff3e00040037006128e100010032002a
:1004c0000082eb00040007001101ba000200e00006
:1004d000e8ff3a00000006003159ba008301e90044
:1004e0000c0032002159ba008301e90008003200f3
:1004f0000400e00003003a00e280400032a0b400b3
:10050000f5ff370011d9ba008301e900faff3a007c
:100510008100e800e180400032a0b4000000060045
:100520000040da000000fe0003f0a200889fbe0039
:100530008a9fbe008c1f78001c0107002301330036
:100540006450e1004f0032006420e10052003200ac
:1005500003826c0007003b000905d0000306d000b1
:10056000820f54000c065d000200390002003200c8
:1005700089017800030678008582550004003d005b
:100580000003fd008103fd008502ea008b85420027
:10059000840f720002003b0060001000e080180031
:1005a0006011b8000005eb007a28e1000a0039006c
:1005b00006007800c75ddd00f707b2008780750090
:1005c0002d003700828171000a017800610560000a
:1005d0008180d1000080d3008502e900f9ff3b0053
:1005e000060440008784480002003b0060041400b9
:1005f000e0841c000988a300070032008a81710092
:1006000082817100610164008904d1000884d300f3
:100610008b05e800170037000978a30013003a00a3
:100620000b00e000130034008b05e90008044400cf
:1006300089844c000a4474000978a3000d003a0034
:100640000b00e000070034008b05e90008044400bb
:1006500089844c0001003a000b0020000978a300b7
:10066000f7ff32000001eb000200370082817100c9
:100670000a017800920007000cf0a70001f0a0002a
:10068000db0037006420e10002003a00838f6c0039
:10069000db0033000801be000200be00d4003700ba
:1006a000889fbe008a9fbe008c1f7800bf00070095
:1006b000c600330003866c006450e1002e00320057
:1006c0006420e100330032006150e1002f0032006d
:1006d0006120e1003100320085855500eb07b00054
:1006e0000900200008042000050037000804440029
:1006f00089844c000a0031000603430087834b00c5
:100700000001530081815b00f8ff33000203be004b
:100710000800a0000804440089844c00f6ff39005a
:10072000c639dd0083017300010032001300200090
:100730008904d1000884d3000998a3000500320081
:100740000800a7000300a0008904d1000884d3009a
:100750008b05e8008904d1000884d3000001eb0078
:100760000281d2005600070001f0a1000cf0a700a2
:1007700001f0a0009e0037006420e100a0003200dc
:100780000801be000200be00f7ff37006120e10053
:100790009b0032006000b800f3ff3700000020002b
:1007a00001f82700f0ff37000001be006a000700d3
:1007b0000470a70003f0a10003f8a30013003a009f
:1007c0006509b10010003200090035006928e10018
:1007d0000200350001002800000005000000400074
:1007e000818048008502e900fcff3a000000060015
:1007f000f88f4200050035008100d1000080d30051
:100800008502e800fcff3a00000006008000eb00d3
:1008100000000500889fbe008a9fbe000105780089
:100820000100e0000400350008003c000000e0008a
:10083000200032000500370060001000e080180042
:1008400002003b0001f02c001a0037000004be003b
:100850006011b8006b0920000982cf000200390046
:100860000882cf000441b000694252000e003200fd
:1008700008003b0082817100610164008904d1009d
:100880000884d3008b05e8000442e800f9ff3a0031
:10089000050037000804440089844c008b05e900fa
:1008a0000442e900fbff3a00050007000af0a70038
:1008b00001f0a0004f05be004f04be00000006007e
:1008c00081002000618055000b003d000b002000de
:1008d00061fe2f000100e1001d00340082817100e3
:1008e000610164008904d1000884d3000000e8009d
:1008f000faff3a00710020006100640003007000fc
:10090000020060000900320061044400e0844c00f1
:100910000988a500050032008b05e8006808e100a1
:1009200002003a008904d1000884d300f20f2000ad
:100930000258e10005003d00c75ddd00f907b20087
:100940008980750008007800000006000bf8270079
:100950008b00780000000500c70ade00f107b20036
:10096000f50fb20008003200e1cf42000200320071
:100970000170a00024000500810f7000010032000a
:100980000408050044000500810f700002003a00d1
:10099000140005008502e9000000400081c0480005
:1009a000fcff3b000170a000240005000004be0015
:1009b000e9ff07000003be000405be000200be0000
:1009c000e5ff0700844f7500000006000200be002e
:1009d0006450e100050036006420e10002003600aa
:1009e0000968a30001003a000800be000160a000f1
:1009f0004f0678004f05be004f04be000000060001
:100a0000f0ff2f00f1ff2700f9ff3700889fbe009d
:100a10008a9fbe008c1f7800e4ff0700ebff3300c5
:100a200003866c006450e100240032006420e10081
:100a3000270032006150e100220032006120e10015
:100a4000210032008b854200eb07b1000134b80071
:100a5000003ab8000804420089844a00013ab8000c
:100a60000030b8008880400009014a0004003300cb
:100a70000000400081804800020149008b05e90028
:100a8000c909dd008301700001003200130020005d
:100a9000c814de004814dd004709de001200b20071
:100aa000c808de000884700085ff070001f0a1007f
:100ab0000cf0a70001f0a000cdff37006120e1009d
:100ac000cfff32000801be000200be00f7ff370072
:100ad0006150e100fcff3a00c9ff37006022b80016
:100ae000060220000000d0008180d2000482d200e3
:100af0008582d2000000a0000202520083825a00c8
:100b0000030031000202420083824a000000a1007b
:100b10000603e900f3ff3a0000000600efff0700bc
:080b20000400be000000060005
:020000040000fa
:0200000401f009
:04000800ffff0000f6
:020000040000fa
:0200000401f009
:04000c007aff000077
:020000040000fa
:0200000401f009
:04001000baff000033
:020000040000fa
:0200000401f009
:040014007fff00006a
:020000040000fa
:0200000401f009
:04001800f6ff0000ef
:020000040000fa
:0200000401f009
:040020003fff00009e
:020000040000fa
:1000080090020000900200009002000090020000a0
:100018009002000090020000900200009002000090
:100028009002000090020000900200009002000080
:100038009002000090020000900200009002000070
:020000040000fa
:020000040000fa
:100b2800204d00004f6800006d000000206b0000a1
:100b38004f6800006d000000204f0000686d000045
:100b4800005400006f6f0000204c0000617200002c
:100b580067650000004400006967000069740000d0
:100b6800616c0000204f0000686d00004d650000ba
:100b7800746500007200000030310000323300005c
:100b88003435000036370000383900000000000016
:020000040000fa
:100b98000000fa00c922a900c902a9000000eb0060
:100ba80040168800cd22a900cd02a9000000eb0064
:100bb8006016880000352c0001002000bf020700e5
:100bc80080c3b3001b000700c0c0b30019000700b2
:100bd80060c0b3001700070010c0b300150007007d
:100be8000080fa00000006000000fa0010c0b30000
:100bf8001000070080a9230001002000af020700b1
:100c08000080fa00000006000000fa00cd22a800cb
:100c1800803e200001002000a8020700cd22a90084
:100c2800803e200001002000a40207000080fa0096
:100c3800000006000200fa00004f7800cd02a9006b
:100c48006116800000f02f000080600060168800a8
:100c58009e80fb006016800000807000601688008f
:100c6800e9ff07000080fa00000006000200fa0011
:100c7800004f7800cd02a8006116800000f02f0018
:100c880000806000601688009e80fb00601680006f
:100c98000080700060168800dbff07000080fa0003
:100ca800000006000200fa00000f78000400370078
:100cb8001e007800104078001e0fe800ebff0700c8
:100cc8001e007800104078000004e000f8ff3a00a9
:100cd8000080fa00000006000400fa00004f7800c7
:100ce8001e4078000004e00003003d00f0c8b30097
:100cf8009e4f100006003600f0cbb3009e4f100048
:100d080008003600f0ccb3009e4f100005003e00ee
:100d18001e407800c7ff0700100020001007980049
:100d2800020037000000eb00100798001e0090003a
:100d38000080fa00000006001200fa006007980020
:100d480071079800005c28000a000900305f7800ed
:100d5800be00b1006e019000fe01900090002000de
:100d680001002000800f5100818f590008003e00cb
:100d78006e009000fe0090000000470010407800d0
:100d8800baff07000000eb00000f98009c01370035
:100d98006e019000fe0190009000200001002000ec
:100da800800f5100818f59001a0036006e019000a3
:100db800fe0190003006200001002000800f510045
:100dc800818f590013003e006e009000fe009000d5
:100dd800a2002000030020003eff0700000047009b
:100de80010407800a1ff07006e009000fe00900000
:100df800a20020000300200046ff07000000470073
:100e08001040780099ff07000000eb00000f9800e1
:100e18007b0137006e019000fe0190003006200033
:100e280001002000800f5100818f590028003600f2
:100e38006e019000fe019000703e2000010020002d
:100e4800800f5100818f590021003e006e009000f4
:100e5800fe00900042062000030020001dff07004e
:100e6800000047001040780080ff07006e009000e7
:100e7800fe009000420620000300200025ff070026
:100e8800a20020000300200012ff07000000470016
:100e98001040780075ff07006e009000fe0090007b
:100ea80042062000030020001aff0700a2002000cd
:100eb8000300200017ff07000000470010407800db
:100ec8006aff07000000eb00000f98004c01370094
:100ed8006e019000fe019000703e2000010020008d
:100ee800800f5100818f59003b0036006e01900041
:100ef800fe019000f070220001002000800f5100d8
:100f0800818f590034003e006e009000fe00900072
:100f1800823e200003002000eefe0700000047008c
:100f28001040780051ff0700e0c2b3004fff0700f0
:100f38006e009000fe009000823e2000030020001a
:100f4800f4fe07004206200003002000e1fe07002f
:100f5800000047001040780044ff07006e00900032
:100f6800fe009000823e200003002000e9fe0700fa
:100f78004206200003002000e6fe0700a200200031
:100f880003002000d3fe070000004700104078004f
:100f980036ff07006e009000fe009000823e2000a1
:100fa80003002000dbfe07004206200003002000ab
:100fb800d8fe0700a200200003002000d5fe07008d
:100fc800000047001040780028ff070010002000ac
:100fd800000f98000a0137006e019000fe01900092
:100fe800f070220001002000800f5100818f59000d
:100ff8004f0036006e019000fe019000f069280055
:1010080011002000800f5100818f590048003e00d8
:101018006e009000fe009000027122000300200084
:10102800acfe070000004700104078000fff0700e3
:101038006e009000fe009000027122000300200064
:10104800b4fe0700823e200003002000a1fe070036
:10105800000047001040780004ff0700e0c2b3001a
:1010680002ff07006e009000fe009000027122004f
:1010780003002000a7fe0700823e20000300200096
:10108800a4fe0700420620000300200091fe07008e
:101098000000470010407800f4fe07006e00900042
:1010a800fe009000027122000300200099fe070054
:1010b800823e20000300200096fe07004206200022
:1010c8000300200093fe0700a20020000300200078
:1010d80080fe07000000470010407800e3fe07008c
:1010e8006e009000fe0090000271220003002000b4
:1010f80088fe0700823e20000300200085fe0700ce
:10110800420620000300200082fe0700a200200003
:10111800030020007ffe0700000047001040780011
:10112800d2fe070010002000000f9800b40037001e
:101138006e019000fe019000f06928001100200067
:10114800800f5100818f5900660036006e019000b3
:10115800fe019000f0232400f1002000800f5100d0
:10116800818f59005f003e006e009000fe009000e5
:10117800026a28001300200056fe070000004700fe
:1011880010407800b9fe07006e009000fe00900045
:10119800026a2800130020005efe07000271220088
:1011a800030020004bfe07000000470010407800b5
:1011b800aefe07006e009000fe009000026a280054
:1011c8001300200053fe07000271220003002000d4
:1011d80050fe0700823e2000030020003dfe07006d
:1011e8000000470010407800a0fe0700e0c2b300ee
:1011f8009efe07006e009000fe009000026a280024
:101208001300200043fe07000271220003002000a3
:1012180040fe0700823e2000030020003dfe07003c
:1012280042062000030020002afe070000004700b5
:10123800104078008dfe07006e009000fe009000c0
:10124800026a28001300200032fe07000271220003
:10125800030020002ffe0700823e2000030020002c
:101268002cfe0700420620000300200029fe07008c
:10127800a20020000300200016fe0700000047001f
:101288001040780079fe07006e009000fe00900084
:10129800026a2800130020001efe070002712200c7
:1012a800030020001bfe0700823e200003002000f0
:1012b80018fe0700420620000300200015fe070064
:1012c800a20020000300200012fe070000004700d3
:1012d8001040780065fe070010002000000f9800fd
:1012e800470037006e019000fe019000f0232400b3
:1012f800f1002000800f5100818f59003e00360018
:101308006e019000fe019000f0672900810920001d
:10131800800f5100818f590037003e006e00900009
:10132800fe00900002242400f3002000e9fd0700dd
:1013380000004700104078004cfe0700e0c2b300f0
:101348004afe07006e009000fe0090000224240070
:10135800f3002000effd0700026a280013002000b8
:10136800dcfd070000004700104078003ffe070042
:101378006e009000fe00900002242400f30020007c
:10138800e4fd0700026a280013002000e1fd0700c1
:101398000271220003002000cefd07000000470074
:1013a8001040780031fe07006e009000fe009000ab
:1013b80002242400f3002000d6fd0700026a28005a
:1013c80013002000d3fd0700027122000300200053
:1013d800d0fd0700823e200003002000bdfd07006d
:1013e800000047001040780020fe07002000200081
:1013f800000f98000200370030002000000f98000e
:101408000e0890000080fa00000006002800fa008c
:10141800889fbe0073004700f15a28001000090099
:10142800315878001001b1000040eb0020579800b7
:1014380000002400c161240070079800010f980083
:1014480000002000010a2400500798006107980056
:101458000000eb00400798006000b80020079800e3
:10146800310798006000b800008fbe00defd07005d
:10147800730047000bfe070000ccb30016fe070000
:101488007c000700400798004e009000cf80de00e7
:10149800defc070020179800311798004e009000d6
:1014a8000000e00007003d0002002000037824004f
:1014b8002e109000be1090001afc0700201798000c
:1014c800311798002e109000be10900052fe2f0089
:1014d800f3b923004bfd0700200798003107980057
:1014e8007e0190008e0990002e009000be009000b2
:1014f80044fd07000004be002e019000be019000cc
:101508005e009000ee00900005fc07000001be00a0
:101518000800be0060fc0700a1fc0700008fbe00a9
:101528001e00be0004fe0700205798002e509000b1
:10153800e24f500003003a0040592800d9fd070047
:101548000e0037002e509000e14f500003003a0083
:10155800a0592800d3fd0700080037002e5090003e
:101568000004e00003003a00005a2800cdfd0700ff
:1015780002003700505a2800cafd07004f04be0079
:101588000080fa00000006000000fa00c002a8006f
:1015980021e3a90025e3a9005132200091407800f9
:1015a80000ceb30000c06000f040b30025e3b700f0
:1015b800413220009140780000ccb30000c06000a8
:1015c80024e3b7002343a90022e3a9002132200025
:1015d8009140780030ccb30000c0600022e3b7002f
:1015e8002223a9002203a90021a3a9001132200067
:1015f80091407800c0cfb30000c0600021e3b7007d
:1016080020c3bf007f40600020e3b7002043a9004b
:101618000080fa00000006000200fa00004f78007f
:1016280021e3a900401f200001002000230007003b
:101638009e4078006fc060006f4060006f4060009f
:101648006f416000813220009140780000cfb300e4
:1016580000c060000240700028e3b700401f20006f
:10166800010020001500070021e3a8000080fa000f
:10167800000006000000fa002023a80020c3bf00d5
:10168800624060000004e000fcff32002023a90053
:1016980020c3bf00624060000004e000fcff3a0085
:1016a80020c3bf00614060000004e000fcff32007e
:0c16b800001880000080fa00000006000e
:020000040000fa
:1016c400f03fb1000180b10006003500ee030900cf
:1016d40000000000403fb1000180b100fbff3d006d
:1016e4001000b000203fb000020035000080090067
:0816f4000000000000000600e8
:020000040000fa
:1016fc000000fa0025fd0700a2ff07000040eb00e8
:10170c00c4ff070040ff070000122a0071002000f0
:08171c00e9ff0700fbff3700a5
:020000040000fa
:0417240000000000c1
:00000001FF
